{
  "contractName": "CaptureTheFlag",
  "abi": [
    {
      "inputs": [
        {
          "internalType": "address",
          "name": "_forwarder",
          "type": "address"
        }
      ],
      "stateMutability": "nonpayable",
      "type": "constructor"
    },
    {
      "anonymous": false,
      "inputs": [
        {
          "indexed": false,
          "internalType": "address",
          "name": "_from",
          "type": "address"
        },
        {
          "indexed": false,
          "internalType": "address",
          "name": "_to",
          "type": "address"
        }
      ],
      "name": "FlagCaptured",
      "type": "event"
    },
    {
      "inputs": [],
      "name": "flagHolder",
      "outputs": [
        {
          "internalType": "address",
          "name": "",
          "type": "address"
        }
      ],
      "stateMutability": "view",
      "type": "function"
    },
    {
      "inputs": [
        {
          "internalType": "address",
          "name": "forwarder",
          "type": "address"
        }
      ],
      "name": "isTrustedForwarder",
      "outputs": [
        {
          "internalType": "bool",
          "name": "",
          "type": "bool"
        }
      ],
      "stateMutability": "view",
      "type": "function"
    },
    {
      "inputs": [],
      "name": "trustedForwarder",
      "outputs": [
        {
          "internalType": "address",
          "name": "",
          "type": "address"
        }
      ],
      "stateMutability": "view",
      "type": "function"
    },
    {
      "inputs": [],
      "name": "versionRecipient",
      "outputs": [
        {
          "internalType": "string",
          "name": "",
          "type": "string"
        }
      ],
      "stateMutability": "view",
      "type": "function"
    },
    {
      "inputs": [],
      "name": "captureFlag",
      "outputs": [],
      "stateMutability": "nonpayable",
      "type": "function"
    }
  ],
  "bytecode": "0x60806040526040518060400160405280600581526020017f322e302e300000000000000000000000000000000000000000000000000000008152506001908051906020019061004f929190610118565b506000600260006101000a81548173ffffffffffffffffffffffffffffffffffffffff021916908373ffffffffffffffffffffffffffffffffffffffff16021790555034801561009e57600080fd5b50604051610684380380610684833981810160405260208110156100c157600080fd5b8101908080519060200190929190505050806000806101000a81548173ffffffffffffffffffffffffffffffffffffffff021916908373ffffffffffffffffffffffffffffffffffffffff160217905550506101bd565b828054600181600116156101000203166002900490600052602060002090601f016020900481019282601f1061015957805160ff1916838001178555610187565b82800160010185558215610187579182015b8281111561018657825182559160200191906001019061016b565b5b5090506101949190610198565b5090565b6101ba91905b808211156101b657600081600090555060010161019e565b5090565b90565b6104b8806101cc6000396000f3fe608060405234801561001057600080fd5b50600436106100575760003560e01c80632ded77161461005c578063486ff0cd146100a6578063572b6c05146101295780637da0a87714610185578063d481972f146101cf575b600080fd5b6100646101d9565b604051808273ffffffffffffffffffffffffffffffffffffffff1673ffffffffffffffffffffffffffffffffffffffff16815260200191505060405180910390f35b6100ae6101ff565b6040518080602001828103825283818151815260200191508051906020019080838360005b838110156100ee5780820151818401526020810190506100d3565b50505050905090810190601f16801561011b5780820380516001836020036101000a031916815260200191505b509250505060405180910390f35b61016b6004803603602081101561013f57600080fd5b81019080803573ffffffffffffffffffffffffffffffffffffffff16906020019092919050505061029d565b604051808215151515815260200191505060405180910390f35b61018d6102f6565b604051808273ffffffffffffffffffffffffffffffffffffffff1673ffffffffffffffffffffffffffffffffffffffff16815260200191505060405180910390f35b6101d761031b565b005b600260009054906101000a900473ffffffffffffffffffffffffffffffffffffffff1681565b60018054600181600116156101000203166002900480601f0160208091040260200160405190810160405280929190818152602001828054600181600116156101000203166002900480156102955780601f1061026a57610100808354040283529160200191610295565b820191906000526020600020905b81548152906001019060200180831161027857829003601f168201915b505050505081565b60008060009054906101000a900473ffffffffffffffffffffffffffffffffffffffff1673ffffffffffffffffffffffffffffffffffffffff168273ffffffffffffffffffffffffffffffffffffffff16149050919050565b6000809054906101000a900473ffffffffffffffffffffffffffffffffffffffff1681565b6000600260009054906101000a900473ffffffffffffffffffffffffffffffffffffffff16905061034a610446565b600260006101000a81548173ffffffffffffffffffffffffffffffffffffffff021916908373ffffffffffffffffffffffffffffffffffffffff1602179055507facc718a11fbc93a22905740808767480f9efd07b1c0b0128095790cd1440048d81600260009054906101000a900473ffffffffffffffffffffffffffffffffffffffff16604051808373ffffffffffffffffffffffffffffffffffffffff1673ffffffffffffffffffffffffffffffffffffffff1681526020018273ffffffffffffffffffffffffffffffffffffffff1673ffffffffffffffffffffffffffffffffffffffff1681526020019250505060405180910390a150565b6000601860003690501015801561046257506104613361029d565b5b1561047657601436033560601c905061047e565b33905061047f565b5b9056fea2646970667358221220ac1f7914eddac0d9587724f9f4ceddadef81719a062c3cb03852aa0ce244531d64736f6c634300060a0033",
  "immutableReferences": {},
  "source": "pragma solidity ^0.6.10;\n\n// SPDX-License-Identifier: MIT OR Apache-2.0\n\nimport \"@opengsn/gsn/contracts/BaseRelayRecipient.sol\";\n\ncontract CaptureTheFlag is BaseRelayRecipient {\n\tstring public override versionRecipient = \"2.0.0\";\n\n\tevent FlagCaptured(address _from, address _to);\n\n\taddress public flagHolder = address(0);\n\n        // Get the forwarder address for the network\n        // you are using from\n        // https://docs.opengsn.org/deployments/networks.html\n\tconstructor(address _forwarder) public {\n\t\ttrustedForwarder = _forwarder;\n\t}\n\n\tfunction captureFlag() external {\n\t\taddress previous = flagHolder;\n\n                // The real sender. If you are using GSN, this\n                // is not the same as msg.sender.\n\t\tflagHolder = _msgSender();  \n\n\t\temit FlagCaptured(previous, flagHolder); \n\t}\n}",
  "sourcePath": "/Users/hakeemorewole/projects/1aa/multisend/gsn_again/script/contracts/flag.sol",
  "compiler": {
    "name": "solc",
    "version": "0.6.10+commit.00c0fcaf.Emscripten.clang"
  },
  "schemaVersion": "3.2.3",
  "updatedAt": "2021-01-17T06:43:25.117Z",
  "devdoc": {
    "methods": {}
  },
  "userdoc": {
    "methods": {}
  }
}